:020000040800F2
:1000000000C00020096C00082B5400082D54000883
:100010002F54000831540008335400080000000039
:10002000000000000000000000000000355400083F
:100030003754000800000000395400083B54000801
:10004000516C0008516C0008516C0008516C00089C
:10005000516C0008516C0008516C0008516C00088C
:10006000516C0008516C0008516C0008894A000866
:10007000516C0008516C0008516C0008516C00086C
:10008000516C0008516C0008516C0008516C00085C
:10009000516C0008516C0008516C0008516C00084C
:1000A000516C0008516C0008516C0008516C00083C
:1000B000516C0008516C0008516C0008516C00082C
:1000C000516C0008516C0008516C0008516C00081C
:1000D000516C0008516C0008516C0008516C00080C
:1000E000516C0008516C0008516C0008516C0008FC
:1000F000516C0008516C0008516C0008516C0008EC
:10010000516C0008516C0008516C0008516C0008DB
:10011000516C0008516C0008516C0008516C0008CB
:10012000516C0008516C0008516C0008516C0008BB
:1001300000000000000000000000000000000000BF
:1001400000000000000000000000000000000000AF
:10015000000000000000000000000000000000009F
:10016000000000000000000000000000000000008F
:10017000000000000000000000000000000000007F
:10018000000000000000000000000000000000006F
:10019000000000000000000000000000000000005F
:1001A000000000000000000000000000000000004F
:1001B000000000000000000000000000000000003F
:1001C000000000000000000000000000000000002F
:1001D000000000000000000000000000000000001F
:0401E0005FF8E0F1F3
:1001E4000348044B834202D0034B03B118477047C2
:1001F400C0010020C0010020000000000548064B9B
:100204001B1AD90F01EBA301491002D0034B03B110
:1002140018477047C0010020C00100200000000002
:1002240010B5064C237843B9FFF7DAFF044B13B13A
:100234000448AFF300800123237010BDC0010020E7
:1002440000000000546C000808B5044B1BB10449BD
:100254000448AFF30080BDE80840CFE70000000089
:10026400C4010020546C000870B50F4B0F4DAB4215
:10027400A3EB050607D00024B61055F8043B01345F
:100284009847A642F9D806F0E3FC094D094B5E1BDA
:10029400AB424FEAA60606D0002455F8043B0134CD
:1002A4009847A642F9D870BDC8740008C8740008FD
:1002B400C8740008CC74000870B5860747D0541E73
:1002C400002A3ED00346CAB201E0013C39D303F808
:1002D400012B9D07F9D1032C2CD9CDB205EB0525B3
:1002E4000F2C1A4605EB054534D9A4F1100C2CF05B
:1002F4000F0603F1100EB6444FEA1C1CC2E9005568
:10030400C2E9025510327245F8D10CF1010214F021
:100314000C0F03EB021204F00F0C13D0ACF1040326
:1003240023F003030433134442F8045B9342FBD1E8
:100334000CF003042CB1C9B21C4403F8011BA34202
:10034400FBD170BD64461346002CF4D1F9E7034693
:100354001446C0E7A446E1E7844641EA000313F0EB
:10036400030349D1403A23D30B6803604B684360CD
:100374008B688360CB68C3600B6903614B6943611D
:100384008B698361CB69C3610B6A03624B6A436205
:100394008B6A8362CB6AC3620B6B03634B6B4363ED
:1003A4008B6B8363CB6BC36340304031403ADBD209
:1003B40030320BD30B6803604B6843608B688360F7
:1003C400CB68C36010301031103AF3D20C3205D32D
:1003D40051F8043B40F8043B043AF9D2043208D003
:1003E400D2071CBF11F8013B00F8013B01D30B8875
:1003F40003806046704700BF082A13D38B07B1D02F
:1004040010F00303AED0C3F10403D21ADB071CBF00
:1004140011F8013B00F8013BA4D331F8023B20F86A
:10042400023B9FE7043AD9D3013A11F8013B00F8A3
:10043400013BF9D20B7803704B7843708B7883704F
:10044400604670470EB400B582B003AB53F8042B7A
:100454008168019300F056F802B05DF804EB03B034
:10046400704700BF0FB400B5074A83B004AB1068EF
:1004740053F8042B8168019300F044F803B05DF84D
:1004840004EB04B0704700BF000000209368013BF8
:10049400002B936005DAD2F818C0634507DB0A29FC
:1004A40005D01368581C106008461970704700F096
:1004B40063B900BF9BB1F8B5134406460F46541EFA
:1004C4005D1E01E0AC4208D03A46304614F8011FE4
:1004D400FFF7DCFF431CF5D1F8BD0020F8BD002078
:1004E400704700BF936810B514461BB91846002323
:1004F400636010BD00F08EF90023A36000236360E5
:1005040010BD00BF2DE9F04FA1B08B4691461C46AB
:10051400049018B1036A002B00F01381BBF80C306F
:10052400180740F18E80DBF81030002B00F0898032
:10053400002343F220020D9399F800300127824EE4
:100544000794ADF83920002B73D04D4603E015F81D
:10055400013F002B7FD0252BF9D1B5EB090A7DD1C2
:100564002B78002B65D000234FF0FF320135CDE905
:10057400092308930B938DF863301E9306E02546F8
:10058400089B801B07FA00F0034308932C460522BE
:1005940014F8011B304601F029F9A1460028EED1D8
:1005A400089BD90644BF20228DF863201A0748BF50
:1005B4002B22297848BF8DF863202A2964D1079A11
:1005C4001168043200290792C0F296800B91697871
:1005D4002E296FD05D4C0322204601F007F938B173
:1005E4004022089B001B8240134309F10109089330
:1005F40019F8011B062256488DF8381001F0F6F858
:1006040000287FD0534B002B69D007A900915A468C
:100614000498514B08A9AFF300800390039B013366
:1006240007D00D9B039A13440D9399F80030002BC7
:100634008BD1BBF80C305B060AD40D9821B0BDE811
:10064400F08F5946049800F0DDFD00283FF470AFA8
:100654004FF0FF30F2E7B5EB090AEAD009F1FF38B1
:1006640005954546DDF8108001E0A2453ED92C46AB
:100674005A46404615F8011FFFF708FF02340130BF
:10068400A4EB0904F1D1D4E7A1F13002092A88BF0F
:10069400A9469DD80B9B00E00134217803EB83032A
:1006A40002EB4303A1F13002092AF5D92E29A14610
:1006B4000B938FD199F801102A292DD1079B09F1A9
:1006C40002001A680433002A0793B8BF4FF0FF33BF
:1006D40099F8021009928146B8BF09937AE7079BFB
:1006E400073323F00703083307939AE70D99059D11
:1006F40051442B780D9134E7494243F002030B91A6
:10070400089364E707A900915A460498124B08A974
:1007140000F09EFE039081E70023A1F13002092A34
:1007240009F1010909933FF655AF19F8011F03EBCD
:10073400830302EB4303A1F13002092AF5D909939B
:1007440048E700F0C7FAE9E6DC6C0008E46C00084E
:10075400E86C000800000000B90400088C4600B5ED
:1007640086461346034A714610685DF804EB6246F8
:10077400FFF7C8BE00000020F8B506460D46144633
:1007840010B1036A002B37D0A269A389A2601A07AB
:1007940019D52369BBB122686169D31AEDB29942B4
:1007A4002F4620DD0133A1680139A160511C21606D
:1007B400157062699A420DD0A389DB0701D50A2D11
:1007C40008D03846F8BD2146304600F01BFD38B944
:1007D4002369E0E72146304600F02EFB0028F0D0E4
:1007E4004FF0FF37EDE72146304600F025FB0028A7
:1007F400F6D101232268D6E700F06CFAC4E700BF03
:1008040003460A46024908681946FFF7B5BF00BF08
:10081400000000209368002B00F0F0802DE9F04FD9
:10082400B1F90CC090461CF0080F81460C4683B009
:100834002BD00B694BB31CF00207D8F8006032D000
:100844004FF0000A5546D4F828B0216AAB4FC5B121
:10085400BD422B46524628BF3B464846D84700284F
:1008640040F3C280D8F8083082441B1A2D1AC8F805
:100874000830002B00F0AE80D4F828B0216A002D97
:10088400E6D1D6E900A50836E1E72146484600F05E
:10089400B9FC002840F0AD80B4F90CC0D8F8006071
:1008A4001CF00207CCD11CF0010A63D1574623681F
:1008B400A16818468B46002F58D01CF4007F00F026
:1008C400B180B9420A4600F2DD801CF4906F2FD04B
:1008D400216962695D1A02EB420202EBD2726B1C5F
:1008E40052103B44934292BF93469B461A461CF4D3
:1008F400806F00F0E6801146484600F005FB0028B2
:1009040000F0F5802A4621690190FFF725FDA289B0
:10091400019B22F4906242F08002A2815819C4F82B
:1009240014B0ABEB05053A46BB462361A5602060D5
:100934003D4600275146019200F0C4FBA16823689C
:10094400019AA1EB0B011A44A1602260D8F8083087
:10095400AA445B1BC8F80830002B3BD02368A1686D
:1009640018468B46B4F90CC0002FA6D1D6E900A7CF
:1009740008369EE73846BB463D46002D40D0002849
:1009840045D03A46D4E904C32068AA4228BF2A467F
:100994006045A16804D901EB030A524500F3828043
:1009A400934272DC5A464846216AD4F828C0E0478C
:1009B400B0F1000A18DDB7EB0A070FD00120D8F810
:1009C4000830D344A3EB0A03A5EB0A05C8F80830A2
:1009D400002BD2D1002003B0BDE8F08F2146484659
:1009E40000F02AFA0028EAD0B4F90C3043F04003AE
:1009F400A3814FF0FF3003B0BDE8F08F00207047B3
:100A0400756833460836002DFAD0D3F800B02A466C
:100A14000A21584600F0EAFE002865D00130A0EB18
:100A24000B07AEE722699A4214D36569BD4211D817
:100A34006FF00043BB4228BF3B4693FBF5F352469D
:100A440005FB03F34846A56A216AA847051ECBDDCA
:100A54007F1B7BE7B94228BF39460D4618465146ED
:100A64002A4600F02FFBA1682368491B2B44A16090
:100A740023600029ECD12146484600F0DDF9002826
:100A8400E6D0B1E7BB463A4652E75946019200F038
:100A940019FB019AA36892469B1AA3602368134426
:100AA400236088E75946524600F00CFB2368214630
:100AB40053444846236000F0BFF900283FF47BAF5D
:100AC40092E7484600F000FC034600287FF426AF76
:100AD4004846216900F098FA0C22B4F90C30C9F8A0
:100AE400002023F0800381E76A1C17464AE70C22A2
:100AF400B4F90C30C9F8002078E700BF00FCFF7F90
:100B040000207047024A0349034800F059BB00BF64
:100B1400500000203D0E0008040000200C4B4168EA
:100B240010B59942044601D000F086F9A168094B3A
:100B3400994202D0204600F07FF9E168064B9942C1
:100B440004D02046BDE8104000F076B910BD00BFC7
:100B5400DC01002044020020AC0200200020704789
:100B64002DE9F84300250423294C2A490822C4F816
:100B7400381104F15C002946DFF89C90DFF89C8072
:100B8400274F284EC4E90335C4E90055C4E9055587
:100B9400A5606566FFF790FB234B0822294604F104
:100BA400C4006367C4E90849C4E90A87C4E91A555B
:100BB400C4E91E5526632567C4F8CC50C4F8805098
:100BC400FFF77AFB194B2946C4F8DC30082204F1FC
:100BD400680304F59670C4F88830C4E92398C4E91E
:100BE4002576C4E93455C4E93855C4F8D850C4F856
:100BF4003451C4F8E850FFF75FFB04F1D003C4E9B3
:100C04003D98C4E93F76C4F8F030BDE8F88300BFEE
:100C1400DC010020090B0008D1180008F9180008AD
:100C2400391900085D1900080900010012000200CA
:100C3400F8B5254B0646D3F83831002B3CD0234F6A
:100C4400D7E90134013B04D51DE05A1C04F16804C2
:100C540019D0B4F90C50013B002DF6D11C4B0822DD
:100C64002946C4E90155C4E90455E3606566256075
:100C7400A56104F15C00FFF71FFBC4E90D55C4E94D
:100C840012552046F8BD3D680DB12F46D8E74FF404
:100C9400D671304600F038F9044680B1042305606B
:100CA400294625460C304FF4D072A0606360FFF7EC
:100CB40003FB3C602F46C3E7FFF752FFBFE70C235B
:100CC40038603360DDE700BFDC0100205000002005
:100CD4000100FFFF036A03B17047044B044AD3F8D1
:100CE40038310262002BF7D13AE700BFDC01002063
:100CF400210B0008704700BF704700BF0020024A64
:100D0400024900F05DBA00BF50000020050B000846
:100D14000020024A024900F053BA00BF50000020EC
:100D2400610B0008F8B5B1F90C300C461E070746F4
:100D340039D44A68002A53DDE56A002D31D00022F7
:100D44003E683A6013F48052216A55D10123384633
:100D5400A847451C024663D0B4F90C30E56A216A01
:100D6400580705D56368D21A636B0BB1236CD21A8A
:100D740000233846A847421C40D000222369626001
:100D84002360A389DB0400D56065616B3E6041B1DB
:100D940004F14403994202D0384600F035F90023A7
:100DA40063630020F8BD0E69002EFAD09B0718BFBC
:100DB40000230D6808BF4B690E60AD1B8B600CE00F
:100DC4002B463246D4F828C03846216AE047B0F1B1
:100DD400000CA5EB0C05664406DD002DF0DCE0E715
:100DE4000A6C002AA8DCDCE7B4F90C3043F04003B9
:100DF4004FF0FF30A381F8BD626DB1E73968B4F9F3
:100E04000C301D29F2D80B4ACA40D507EED5002272
:100E1400626022692260DA04B7D50029B4D0B4E74D
:100E24003B68002B98D01D2B01D0162BDCD13E60E3
:100E3400B7E700BF010040200B69B3B110B5044609
:100E440082B008B1036A5BB1B1F90C3013B9002068
:100E540002B010BD204602B0BDE81040FFF762BFEB
:100E64000191FFF737FF0199EEE70020704700BFBB
:100E7400B8B138B50D4A0369044615682BB10DB1F4
:100E84002B6A53B1B4F90C300BB9002038BD21469C
:100E94002846BDE83840FFF745BF2846FFF71AFF4C
:100EA400F0E7034A0349044800F08AB9000000202F
:100EB400500000203D0E00080400002070B5114EC3
:100EC400054633680C46BBB12146284600F0ECFCCD
:100ED400431C01460CD0C41C24F00304A04205D0DA
:100EE4002846611A00F0E0FC013001D0204670BDB4
:100EF4004FF0FF34204670BD194600F0D5FC306039
:100F0400E2E700BF180300202DE9F843CD1C25F0CB
:100F1400030508350C2D38BF0C25002D064618DBBB
:100F2400A94216D8DFF8DC8000F0D4FBD8F80420FE
:100F3400A2B1144603E0636822467BB11C462368D1
:100F44005B1BF8D40B2B1FD89442636854D05360B6
:100F54000CE00C2333600020BDE8F88329463046BA
:100F6400FFF7ACFF431C044619D00560304600F07F
:100F7400B3FB04F10B00231D20F00700C21A1CBFB1
:100F84001B1AA350BDE8F88361199442256014BF6D
:100F94005160C8F80410635163684B60E6E7D8F801
:100FA40004701FB33C467F68002FFBD12368394689
:100FB400304604EB030900F077FC814516D1236821
:100FC4003046ED1A2946FFF779FF01300ED0236829
:100FD400D8F804202B442360536883B1A34203D080
:100FE4001A465B689C42FBD10023B0E70C233046D1
:100FF400336000F071FBAEE7C8F80430B6E7C8F818
:101004000470B3E718030020002950D038B551F814
:10101400043C0C1F002BB8BFE418054600F05AFB33
:10102400274A13682BB1A3420CD921686018834264
:101034002CD0284663601460BDE8384000F04CBBF7
:10104400A3420FD81A465B68002BF9D111685018D7
:10105400844217D02CD3636054602846BDE83840DE
:1010640000F03ABB11685018A04214D020D821686F
:1010740060188342EFD118685B680844C4E9000330
:101084005460EAE723680B441360E6E718685B687A
:1010940008442060CDE72068014450188342116061
:1010A400DBD1D3E900040144C2E90014D5E7704759
:1010B4000C2328462B60BDE8384000F00DBB00BF70
:1010C4001C03002088420ED98B1883420BD900EBF5
:1010D400020C002A6DD0624613F801CD994202F841
:1010E40001CDF9D170470F2A0FD8034602F1FF3C16
:1010F400002A5ED00CF1010C013B8C4411F8012B49
:10110400614503F8012FF9D1704740EA01039B07B9
:1011140050D1A2F1100370B501F1200C23F00F059A
:1011240001F1100E00F11004AC441B095EF8105CD0
:101134000EF1100E44F8105C5EF81C5C103444F898
:101144001C5C5EF8185C44F8185C5EF8145CE645B8
:1011540044F8145CEAD1013312F00C0F01EB0311D3
:1011640002F00F0400EB031328D08E46043C24F055
:1011740003064FEA940C1E441C1F5EF8045B44F8FB
:10118400045FB442F9D10CF1010402F0030203EB51
:10119400840301EB840102F1FF3C4AB10CF1010C20
:1011A400013B8C4411F8012B614503F8012FF9D15F
:1011B40070BD7047034602F1FF3C9BE72246EAE715
:1011C4002DE9F8434FF0000980460F461646D6E94C
:1011D4000154013D10D4A389012B08D9B4F90E3070
:1011E400013304D021464046B84749EA0009013D8D
:1011F4006B1C04F16804EED13668002EE7D1484632
:10120400BDE8F88338B52F4B05461B680C4613B16F
:101214001A6A002A4BD0B4F90C3018071CD522697D
:1012240022B313F0010107D000206169A060494294
:10123400A1613AB1002038BD980758BF6169A16027
:10124400002AF7D1190658BF1046F4D543F04003DD
:10125400A3814FF0FF3038BDD9062CD55A0712D4DC
:10126400226943F00803A381002ADAD103F4207130
:10127400B1F5007FD5D02146284600F02FFAB4F905
:101284000C302269CDE7616B51B104F14402914203
:1012940004D02846FFF7B8FEB4F90C30002262638C
:1012A4000021226923F02403C4E90021D9E7184668
:1012B400FFF710FDAFE7092243F040032A60A38142
:1012C400C7E700BF000000202DE9F041144641B3F8
:1012D4000AB306460D4600F043FB8442074602D893
:1012E400B4EB500F13D821463046FFF70DFE80466D
:1012F40050B1BC422246294628BF3A46FFF72CF893
:1013040029463046FFF780FE4046BDE8F081A846F6
:101314004046BDE8F081A046FFF776FE4046BDE8B2
:10132400F0811146BDE8F041FFF7EEBD2DE9F84F1D
:1013340092461F460A698B680C469A42B8BF1A4601
:10134400CAF8002091F843300646DDF8289013B11E
:101354000132CAF80020226891065FD5DAF800301D
:101364000233CAF80030226812F0060F11461DD16C
:10137400E1689942D8BF114618DD4FF0000804F126
:10138400190B05E0E568DAF80030ED1A45450CDD87
:1013940001235A4639463046C847013008F101084E
:1013A400F0D14FF0FF30BDE8F88F216894F8433056
:1013B400003B18BF01238A060AD53021E21882F8BF
:1013C400431094F845105A1C2244023382F8431007
:1013D4003946304604F14302C8470130E1D0D4E92C
:1013E40002202368DAF8005003F00603042B216975
:1013F4001BD08A4220DD4FF00008521A9044002589
:101404001A3401E0454517DA0123224639463046AD
:10141400C847013005F10105F4D1C2E712F0060F07
:101424000DD0003B18BF0123D2E7401B8A4220EABB
:10143400E078E2DC0028E2DC0020BDE8F88FE16817
:10144400DAF800309942D8BF114696DCAEE700BF07
:101454002DE9F04717460A7E84B00C4606469846A6
:101464000C9D01F1430C002A35D0A2F15803D9B2E6
:10147400202969D8202B67D8DFE813F0E60066003E
:101484006600660066006600660066006600660028
:101494006600AC00700066006600660066007000BE
:1014A400660066006600660021008300C6006600D0
:1014B4006600B6006600830066006600EC002B68D8
:1014C4002268181D6169286010061B6802D4520640
:1014D40000F1E08019600023E14623613B46214688
:1014E4003046CDF8008003AAFFF720FF013020D05A
:1014F4004A46394630462369C047013019D023682B
:10150400E0689B07DDF80C9018D5484516DD0025EA
:1015140004F1190A04E0E068A0EB0903AB420DDD15
:101524000123524639463046C047013005F10105D2
:10153400F1D14FF0FF3004B0BDE8F0874845B8BFA3
:10154400484604B0BDE8F087012084F8422004F145
:1015540042090023206184F84330BFE72A682368E6
:10156400111D1806296002D4590600F195801068EF
:10157400014600286268C0F293804FF00A0E534877
:1015840015E020682B6810F0800F53F8041B02D17B
:10159400400648BF89B26F2A14BF4FF00A0E4FF0BD
:1015A400080E4A482B600023626884F84330002AFE
:1015B400A26051DB236823F00403236000294BD18C
:1015C400002A7BD1E146BEF1080F56D0ACEB0903EB
:1015D400236183E72A680120116804322A6004F138
:1015E400420984F84210B4E72B6800211A1D2A60CE
:1015F400D3F800906268484600F0F8F8002863D0F9
:10160400A0EB09006060A4E7236843F02003236093
:1016140078222F4884F845202A6813F0800F52F866
:10162400041B03D113F0400F18BF89B22A60DA07F4
:1016340044BF43F02003236019B9236823F0200337
:1016440023604FF0100EAEE75823204884F845304D
:101654002368E1E72368DBE77546E146B1FBF5F370
:101664000A4605FB131A194610F80A30AA4209F86B
:10167400013DF3D2BEF1080FA8D12368DD07A5D53B
:10168400626823699A42A1DC302309F1FF3989F8A1
:1016940000309BE719801EE7B2F90010084668E79E
:1016A4002D20002AA26084F8430002DB23F0040307
:1016B40023600A250548AE464942CEE7037804F183
:1016C400420984F842307EE7606842E7F06C000823
:1016D400046D0008704700BF704700BF70B5B1F9D2
:1016E4000C300C46990796B007D5012204F1470344
:1016F400C4E90432236016B070BDB4F90E10054677
:10170400002929DB6A4600F05BF9002822DB4FF44C
:1017140080612846019EFFF7F7FB88B3A38906F48E
:10172400704643F08003A3814FF48063B6F5005FF5
:10173400C4E904032060DED12846B4F90E1000F099
:10174400A1F80028D7D0A38923F0030343F00103B1
:10175400A381D0E7B4F90C3013F0800F14BF4026F6
:101764004FF4806628463146FFF7CEFB40B1A3898B
:10177400C4E9040643F080032060A38116B070BD61
:10178400B4F90C309A05B6D4012123F0030304F113
:10179400470243F00203C4E90421A3812260AAE7BB
:1017A40070B50C46B1F90E10154600291E4696B0C8
:1017B4000FDB6A4600F004F900280ADB019B4FF4B2
:1017C400806203F47043A3F50053B3FA83F35B0917
:1017D40007E0A289002312F0800F14BF40224FF4C7
:1017E4008062002033602A6016B070BD5FFA81FC0D
:1017F400810744D00346511E22B909E09A0709D053
:10180400013905D31846027801336245F6D1704791
:1018140000207047184603290CD80029F8D0034645
:10182400014401E08B42F3D0184613F8012B6245C2
:10183400F8D1704710B50CEB0C24024604EB0444B9
:1018440002E00439032915D9104652F8043B6340D9
:10185400A3F1013E2EEA030313F0803FF1D00346C7
:10186400014401E08B4208D0184613F8012B62456D
:10187400F8D110BD10460029F1D1002010BD114649
:10188400C9E700BF002238B5064D044608462A6061
:1018940000F0E6F8431C00D038BD2B68002BFBD0C9
:1018A400236038BD20030020002238B5064D0446CD
:1018B40008462A6000F0ECF8431C00D038BD2B68C1
:1018C400002BFBD0236038BD2003002010B50C464C
:1018D400B1F90E1000F05EF8002803DB636D0344D9
:1018E400636510BDA38923F48053A38110BD00BF99
:1018F400002070472DE9F0410C46B1F90C101F4649
:10190400CB05054616460BD421F48051A1813B46F4
:1019140032462846B4F90E10BDE8F04100F07AB81A
:10192400B4F90E100223002200F05EF8B4F90C1092
:10193400EAE700BF10B50C46B1F90E1000F054F8F8
:10194400B4F90C30421C0EBF23F4805343F480538B
:101954006065A38110BD00BFB1F90E1000F008B896
:1019640051F8043C181F002BBCBF0B58C01870471B
:10197400002238B5064D044608462A6000F060F897
:10198400431C00D038BD2B68002BFBD0236038BD2E
:101994002003002038B50C46114600228446074D2A
:1019A40020462A601A46644600F06AF8431C00D0B8
:1019B40038BD2B68002BFBD0236038BD20030020EA
:1019C40070B50026074D0446084611462E6000F007
:1019D4003FF8431C00D070BD2B68002BFBD0236064
:1019E40070BD00BF2003002038B50C46114600220C
:1019F4008446074D20462A601A46644600F038F8AB
:101A0400431C00D038BD2B68002BFBD0236038BDAD
:101A14002003002038B50C46114600228446074DA9
:101A240020462A601A46644600F040F8431C00D061
:101A340038BD2B68002BFBD0236038BD2003002069
:101A44005822024B4FF0FF301A60704720030020E9
:101A54005822024B4FF0FF301A60704720030020D9
:101A64005822024B00201A60704700BF2003002058
:101A74005822024B4FF0FF301A60704720030020B9
:101A84005822024B4FF0FF301A60704720030020A9
:101A9400044A05491368002B08BF0B46184410601C
:101AA4001846704724030020600700205822024B88
:101AB4004FF0FF301A60704720030020044B0022CF
:101AC400DA61044A136943F001031361018070472A
:101AD4002803002000200240194BDB6813F0100398
:101AE40005D0184AD36943F00203D3611023144A82
:101AF400D26812F0040F06D01249CA6942F00102FA
:101B0400CA6143F004030E4AD26912F0010F09D0EE
:101B14000C49CA6942F00402CA610949CA6922F03F
:101B24000102CA6140F20112934202D0044AD36016
:101B34007047034AD36923F00103D361704700BFA0
:101B44000020024028030020074B1B6913F0800F7C
:101B540007D0054B054A5A6002F188325A600020CA
:101B640070470120704700BF0020024023016745F1
:101B7400034A136943F0800313610020704700BFD8
:101B84000020024038B5044601F06CF90546164BB6
:101B9400DB6813F0010F0AD0B4F1FF3FF7D024B192
:101BA40001F060F9401BA042F1D903201BE00E4B69
:101BB400DB6813F0200F02D00B4B2022DA600A4BB3
:101BC400DB6813F0100F0BD1074BDB6913F0010F27
:101BD40006D1054BDB6813F0040F01D1002002E0AD
:101BE400FFF77AFF012038BD002002402DE9F843B9
:101BF4001E46244B1B7E012B41D004460F469046C3
:101C0400204B01221A764CF25030FFF7BBFF0346FB
:101C140078BB012C08D0022C03D04FF004091C46D9
:101C240007E04FF00209FAE74FF00109F7E7013442
:101C3400E4B24C451DD22101C1F12002A1F12003DF
:101C440028FA01F106FA02F2114326FA03F31943C2
:101C540089B207EB4400FFF731FF4CF25030FFF735
:101C640091FF094B1D6925F001051D6103460028FC
:101C7400DDD0044A002111761846BDE8F88302231A
:101C8400FAE700BF280300200020024082B0084B7E
:101C94001B68084AA2FB03235B0A00FB03F30193BE
:101CA40000BF019B5A1E0192002BF9D102B070476C
:101CB4005C000020D34D621070B582B00446036806
:101CC40013F0010F2CD09A4B5B6803F00C03042B28
:101CD4001DD0974B5B6803F00C03082B12D063688C
:101CE400B3F5803F41D0002B55D103F1804303F578
:101CF40004331A6822F480321A601A6822F48022AB
:101D04001A6037E08A4B5B6813F4803FE7D0884B56
:101D14001B6813F4003F03D06368002B00F0AE810E
:101D2400236813F0020F75D0814B5B6813F00C0F1E
:101D34005FD07F4B5B6803F00C03082B54D02369FE
:101D4400002B00F08A807B4B01221A6001F08AF894
:101D54000546774B1B6813F0020F75D101F082F82A
:101D6400401B0228F5D903208DE1714A136843F41E
:101D740080331360636843B301F074F805466C4B19
:101D84001B6813F4003FCBD101F06CF8401B6428AE
:101D9400F5D9032077E1B3F5A02F09D0644B1A6875
:101DA40022F480321A601A6822F480221A60E1E771
:101DB40003F18043A3F53C331A6842F480221A608D
:101DC4001A6842F480321A60D4E701F04BF80546F1
:101DD400574B1B6813F4003FA2D001F043F8401B9B
:101DE4006428F5D903204EE1514B5B6813F4803F1E
:101DF400A5D14F4B1B6813F0020F03D02369012BAD
:101E040040F03E814A4A136823F0F803616943EACB
:101E1400C1031360236813F0080F33D0A369002BA8
:101E24005CD0444B0122C3F8802401F01BF8054622
:101E34003F4B5B6A13F0020F21D101F013F8401BF2
:101E44000228F5D903201EE1394A136823F0F80368
:101E5400616943EAC1031360DCE7364B00221A6070
:101E640001F000F80546324B1B6813F0020FD1D085
:101E740000F0F8FF401B0228F5D9032003E10120FC
:101E8400FFF704FF236813F0040F00F09780284B3A
:101E9400DB6913F0805F34D1254BDA6942F080525C
:101EA400DA61DB6903F080530193019B0125224B26
:101EB4001B6813F4807F26D0E368012B3ED0002BEF
:101EC40054D103F1804303F504331A6A22F001026A
:101ED4001A621A6A22F004021A6234E0154B0022D4
:101EE400C3F8802400F0BEFF0546114B5B6A13F073
:101EF400020FC7D000F0B6FF401B0228F5D903201B
:101F0400C1E00025D3E70C4A136843F480731360DF
:101F140000F0A8FF0646084B1B6813F4807FCBD162
:101F240000F0A0FF801B6428F5D90320ABE000BFBC
:101F3400001002400000424200700040544A136AFC
:101F440043F001031362E36833B300F08BFF0646EA
:101F54004F4B1B6A13F0020F2FD100F083FF801B3D
:101F640041F288339842F3D903208CE0052B09D041
:101F7400474B1A6A22F001021A621A6A22F004021A
:101F84001A62E0E7424B1A6A42F004021A621A6AC1
:101F940042F001021A62D6E700F064FF06463C4BA9
:101FA4001B6A13F0020F08D000F05CFF801B41F2A3
:101FB40088339842F3D9032065E0E5B9E369002B3F
:101FC40060D0334A526802F00C02082A5DD0022B1A
:101FD40017D0304B00221A6600F044FF04462C4B05
:101FE4001B6813F0007F47D000F03CFF001B022861
:101FF400F5D9032047E0264AD36923F08053D361FF
:10200400DCE7244B00221A6600F02CFF0546204B27
:102014001B6813F0007F06D000F024FF401B022849
:10202400F5D903202FE0236AB3F5803F1AD018496D
:102034004B6823F47413226A606A024313434B60AF
:10204400144B01221A6600F00DFF0446104B1B6866
:1020540013F0007F0ED100F005FF001B0228F5D914
:10206400032010E00A4A536823F40033A1680B43A9
:102074005360DCE7002006E0002004E0012002E0D9
:10208400012000E0002002B070BD0120FBE700BF8A
:10209400001002400000424286B0174B0FCB0DF1F6
:1020A400180C0CE90F0040F20123ADF80430134B77
:1020B4005B6803F00C02082A02D0114806B070478E
:1020C400C3F3834218326A4412F8100C13F4803FAD
:1020D4000DD00A4B5B68C3F3404318336B4413F8C9
:1020E400142C074BB3FBF2F303FB00F0E6E7054BBC
:1020F40003FB00F0E2E700BF6C6C00080010024034
:1021040000127A0000093D0070B504460D46594B93
:102114001B6803F007038B420BD2564A136823F063
:1021240007030B431360136803F007038B4240F06B
:102134009A80236813F0020F06D04F4A536823F0A5
:10214400F003A1680B435360236813F0010F52D0CE
:102154006368012B23D0022B28D0474A126812F05F
:10216400020F00F0828044494A6822F003021343BC
:102174004B6000F077FE06466368012B1DD0022BEE
:102184002AD03D4B5B6813F00C0F34D000F06AFE8C
:10219400831B41F288329342F3D9032062E0364A2A
:1021A400126812F4003FDED101205BE0324A12686B
:1021B40012F0007FD7D1012054E02F4B5B6803F06D
:1021C4000C03042B17D000F04DFE831B41F2883220
:1021D4009342F2D9032045E0274B5B6803F00C03DC
:1021E400082B08D000F03EFE801B41F28833984251
:1021F400F2D9032036E01F4B1B6803F00703AB4200
:102204000AD91C4A136823F007032B43136013688D
:1022140003F00703AB422AD1236813F0040F06D05E
:10222400154A536823F4E063E1680B435360236861
:1022340013F0080F07D0104A536823F46053216940
:1022440043EAC1035360FFF727FF0B4B5B68C3F3FB
:1022540003130A4AD35CD840094B1860002000F0ED
:10226400D1FD002070BD0120FCE70120FAE7012028
:10227400F8E700BF0020024000100240186D00087B
:102284005C000020014B1868704700BF5C00002010
:1022940030B4036A23F001030362036A4268846969
:1022A40024F0730C0C6844EA0C0423F0020C8B68D1
:1022B40043EA0C03114DA84203D005F50065A8427A
:1022C40005D123F00803CD682B4323F004030B4D01
:1022D400A84203D005F50065A84207D122F4407254
:1022E4004D6945EA020C8A6942EA0C024260846143
:1022F4004A684263036230BC704700BF002C01404F
:1023040030B4036A23F480730362036A4268C469C5
:1023140024F0730C0C6844EA0C0523F400738C68F5
:1023240043EA0423114CA04203D004F50064A04204
:1023340006D123F40063CC6843EA042323F48063C6
:102344000A4CA04203D004F50064A04207D122F451
:1023540040524C6942EA04128C6942EA0412426017
:10236400C5614A68C263036230BC7047002C0140F7
:1023740030B4036A23F480530362036A4468C26975
:1023840022F4E6420D6842EA052223F400538D68E4
:1023940043EA0533094DA84203D005F50065A84278
:1023A40004D124F480444D6944EA85144460C26134
:1023B4004A680264036230BC704700BF002C0140CD
:1023C40010B4036A046A24F001040462846924F0EA
:1023D400F00C4CEA021223F00A030B4382610362FD
:1023E40010BC704710B4036A23F0100303628469BD
:1023F400036A24F4704C4CEA023223F0A00343EA4B
:1024040001138261036210BC704710B4846824F421
:102414007F4C42EA03220A4342EA0C02826010BC67
:10242400704710B50468A26822F070024B68134329
:1024340023F007030A681A43A2604B68602B24D078
:1024440009D8402B10D0502B0DD10A698968006837
:10245400FFF7B6FF07E0702B05D10B698A68C968DE
:102464000068FFF7D2FF10BD03681C6A1A6A22F0E5
:1024740001021A620268936923F0F003096943EACE
:102484000113936103681C62EDE70A6989680068B7
:10249400FFF7A8FFE7E7704738B590F83C30012B09
:1024A40018D00446012580F83C50022380F83D30C2
:1024B400FFF7B7FF2268D36823F04003D360226894
:1024C400D36823F48043D36084F83D50002084F81B
:1024D4003C0038BD0220FCE70368244A904212D035
:1024E40002F5006290420ED0B0F1804F0BD0A2F5FD
:1024F4009832904207D002F58062904203D002F5F0
:102504008062904203D123F070034A681343174A50
:10251400904212D002F5006290420ED0B0F1804F8A
:102524000BD0A2F59832904207D002F58062904217
:1025340003D002F58062904203D123F44073CA6849
:10254400134323F080034A691A4302608B68C36211
:102554000B688362054B984203D003F500639842ED
:1025640001D10B690363012343617047002C0140CF
:10257400B0B110B5044690F83D3063B1022384F83D
:102584003D30214651F8040BFFF7A6FF012384F8E0
:102594003D30002010BD80F83C30FFF77CFFEDE7B4
:1025A4000120704730B4036A23F010030362036A06
:1025B4004468826922F4E6420D6842EA052223F067
:1025C40020038D6843EA0513114DA84203D005F595
:1025D4000065A84206D123F08003CD6843EA0513C1
:1025E40023F040030A4DA84203D005F50065A84234
:1025F40007D124F440644D6944EA85048D6944EAB2
:102604008504446082614A688263036230BC704717
:10261400002C014038B590F83C30012B66D00446BC
:102624000D46012380F83C30022380F83D300C2A0B
:102634001AD8DFE802F007191919201919193419E1
:10264400191947000068FFF723FE2268936943F0D5
:10265400080393612268936923F004039361226859
:10266400936929690B439361012384F83D30002069
:1026740084F83C0038BD0068FFF794FF2268936932
:1026840043F4006393612268936923F48063936144
:1026940022689369296943EA01239361E4E70068A6
:1026A400FFF72EFE2268D36943F00803D361226842
:1026B400D36923F00403D3612268D36929690B43E6
:1026C400D361D1E70068FFF753FE2268D36943F46E
:1026D4000063D3612268D36923F48063D3612268E1
:1026E400D369296943EA0123D361BDE70220C1E725
:1026F4004FF0010C0CFA01FC036A23EA0C03036299
:10270400036A8A40134303627047000010B504460D
:1027140001220068FFF7ECFF2368094A934203D0C3
:1027240002F50062934203D15A6C42F400425A64A7
:102734002268136843F001031360002010BD00BF3A
:10274400002C01404FF0040C0CFA01FC036A23EA4C
:102754000C030362036A8A4013430362704710B593
:10276400044604220068FFF7EDFF2268536C43F42B
:10277400004353642268136843F00103136000208C
:1027840010BD024690F83C30012B21D0012380F883
:102794003C30CB6823F440738868034323F480639C
:1027A4004868034323F400630868034323F4805315
:1027B4000869034323F4005348690343896923F4F4
:1027C40040430B4311684B64002082F83C0070477F
:1027D4000220704790F83C20012A22D030B40346EE
:1027E400012083F83C00022283F83D201C686268C3
:1027F40022F0700262601C6862680D682A4362609D
:102804001C68A26822F08002A2601C68A268496861
:102814000A43A26083F83D00002083F83C0030BCEA
:10282400704702207047000090F82420012A25D028
:102834008CB00346012280F82420114A00920268D9
:10284400906810F0010F07D10D48806810F0010F57
:1028540002D10C48824209D09A6A42F020029A625C
:102864000120002283F824200CB07047506820F423
:1028740070200968014351600020F2E7022070478C
:102884000028014000240140002808DB0901C9B2E6
:1028940000F1604000F5614080F80013704700F0DB
:1028A4000F000901C9B2014B1954704714ED00E03F
:1028B40000B500F00700C0F1070CBCF1040F28BFFD
:1028C4004FF0040C031D062B0FD9C31E4FF0FF3E1F
:1028D4000EFA0CF021EA000199400EFA03FE22EAF6
:1028E4000E0241EA02005DF804FB0023EEE700005B
:1028F400074AD36823F4E0631B041B0C000200F4B2
:10290400E060034343F0BF6343F40033D360704794
:1029140000ED00E010B50446054BD868C0F3022072
:10292400FFF7C6FF01462046FFF7AEFF10BD00BF0C
:1029340000ED00E000F01F02400901239340024A29
:1029440042F82030704700BF00E100E00138B0F1E8
:10295400807F0BD24FF0E0235861054AF02182F8C2
:1029640023100020986107221A61704701207047E4
:1029740000ED00E0042806D04FF0E022136923F0B4
:102984000403136170474FF0E022136943F004031A
:1029940013617047704708B5FFF7FCFF08BD0000DE
:1029A400064B0022DA61064B1A6942F004021A61EE
:1029B4001A6942F040021A61704700BF28030020E0
:1029C40000200240064B0022DA61064B1A6942F0ED
:1029D40002021A6158611A6942F040021A61704792
:1029E4002803002000200240264B1B7E012B46D0EA
:1029F40070B505460E46234B01221A760368022B56
:102A040020D04CF25030FFF7BDF890BB4FF0FF33AD
:102A14003360AC680121EA68AB6803EBC223A342CC
:102A240028D92046FFF7CEFF4CF25030FFF7AAF822
:102A3400154A136923F0020313610146B8B904F57A
:102A44000064E8E74CF25030FFF79CF808B101212C
:102A540010E00120FFF7A4FF4CF25030FFF792F88A
:102A64000146094A136923F00403136102E0346048
:102A740000E00121034B00221A76084670BD0221B2
:102A840008467047280300200020024070B582B039
:102A94000024A446ABE0854DAA420CD013D8A5F57A
:102AA4008015AA4207D005F57025AA4203D0A5F5E2
:102AB4008015AA4210D18A68002A62D0012A5BD00C
:102AC4004361082408E07A4DAA42F4D005F5803524
:102AD400AA4201D1EFE7CC68BEF1FF0F53D80646F6
:102AE4004FEA8C0233680F25954023EA050304FA64
:102AF40002F2134333604B6813F0805F75D06D4B63
:102B04009A6942F001029A619B6903F001030193FF
:102B1400019B4FEA9C02951C674B53F825600CF00F
:102B24000305AD000F23AB4026EA0306634B98422E
:102B340030D003F58063984200F0968003F58063FB
:102B4400984200F0938003F58063984200F09080EF
:102B540003F58063984200F08D8003F5806398420A
:102B640016D0062317E0CC680434B5E7CC680834E3
:102B7400B2E7CC680C34AFE703610824ACE7002467
:102B8400AAE70424A8E7061DACF108029200A9E70D
:102B9400052300E00023AB4033430232464D45F8A1
:102BA40022304B6813F4803F66D0454A136843EAE9
:102BB4000E0313604B6813F4003F63D0404A53681C
:102BC40043EA0E0353604B6813F4801F60D03C4A01
:102BD400936843EA0E0393604B6813F4001F5DD0BF
:102BE400374AD36843EA0E03D3600CF1010CBCF1FD
:102BF4000F0F59D8012303FA0CF30A6802EA030EF3
:102C040033EA0202F1D14A68122A3FF644AF122A8B
:102C14003FF662AF01A555F822F000BFBB2A0008B9
:102C2400DB2A0008712B0008832B0008DD2A00082A
:102C3400DD2A0008DD2A0008DD2A0008DD2A000854
:102C4400DD2A0008DD2A0008DD2A0008DD2A000844
:102C5400DD2A0008DD2A0008DD2A0008DD2A000834
:102C64006B2B0008772B0008012394E7022392E7DB
:102C7400032390E704238EE7114A136823EA0E0323
:102C8400136097E70E4A536823EA0E0353609AE7EA
:102C94000B4A936823EA0E0393609DE7084AD368BE
:102CA40023EA0E03D360A0E702B070BD0000221037
:102CB40000003110001002400000014000080140F3
:102CC400000401408368194201D0012070470020AC
:102CD40070470AB101617047090401617047C36814
:102CE4005940C1607047000070B582B00446036863
:102CF40013F0010F36D03F4BDB6913F0805F49D1ED
:102D04003C4BDA6942F08052DA61DB6903F08053AC
:102D14000193019B0125384B1B6813F4807F3BD042
:102D2400344B1B6A13F4407313D0626802F440728C
:102D34009A420ED02F4A136A23F440702F49012679
:102D4400C1F840640026C1F84064106213F0010F1A
:102D540036D1284A136A23F4407361680B43136223
:102D6400002D3ED1236813F0020F06D0214A536888
:102D740023F44043A1680B435360236813F0100FFE
:102D840034D01C4A536823F4800361690B435360B5
:102D940000202CE00025BEE7174A136843F4807333
:102DA400136000F05FF80646134B1B6813F4807F32
:102DB400B6D100F057F8801B6428F5D9032016E03B
:102DC40000F050F806460B4B1B6A13F0020FC0D1FB
:102DD40000F048F8801B41F288339842F3D903206D
:102DE40005E0D36923F08053D361BBE7002002B030
:102DF40070BD00BF0010024000700040000042425D
:102E04007047000010B50446074B1868074BA3FB36
:102E140000308009FFF79AFD002221464FF0FF3071
:102E2400FFF778FD002010BD5C000020D34D621038
:102E340008B5074A136843F0100313600320FFF733
:102E440057FD0020FFF7DEFFFFF7DAFF002008BD83
:102E540000200240024A136801331360704700BF28
:102E640048030020014B1868704700BF4803002046
:102E740030B583B00190FFF7F5FF0546019CB4F12E
:102E8400FF3F00D00134FFF7EDFF401BA042FAD30F
:102E940003B030BD7047000030B482B0002201920C
:102EA40090F82420012A00F08F800346012280F844
:102EB40024204A68062A2DD80468606B02EB82023B
:102EC400053A4FF01F0C0CFA02FC20EA0C000D68C6
:102ED40005FA02F2024362630A68092A38D91C68B7
:102EE400E06802EB42021E3A4FF0070C0CFA02FCB7
:102EF40020EA0C008D6805FA02F20243E2600A68D7
:102F0400103A012A34D90020002283F8242002B088
:102F140030BC70470C2A0DD80568286B02EB82027E
:102F2400233A1F24944020EA04000C689440204370
:102F34002863D1E70568E86A02EB8202413A1F245C
:102F4400944020EA04000C6894402043E862C3E7FC
:102F54001C68206902EB42024FF0070C0CFA02FCD9
:102F640020EA0C008D6805FA02F202432261C6E7EA
:102F74001A681648824205D09A6A42F020029A6280
:102F84000120C1E7906810F4000F1BD1906840F451
:102F9400000090600A68102A01D00020B4E70C4AAF
:102FA40012680C49A1FB0212920C02EB820252003D
:102FB400019202E0019A013A0192019A002AF9D1A0
:102FC4000020A1E700209FE70220A0E700240140A1
:102FD4005C00002083DE1B4330B583B000230193E3
:102FE40003689A6812F0010F2ED104469A6842F0E1
:102FF40001029A60164B1B68164AA2FB03239B0C22
:10300400019302E0019B013B0193019B002BF9D149
:10301400FFF728FF054623689B6813F0010F11D1C1
:10302400FFF720FF431B022BF5D9A36A43F01003DB
:10303400A362E36A43F00103E362002384F82430CB
:10304400012002E0002000E0002003B030BD00BFFA
:103054005C00002083DE1B4390F82430012B68D0F1
:1030640010B50446012380F82430FFF7B5FF00288B
:103074005BD1A36A23F4407323F0010343F4807308
:10308400A36223682C4A934227D0A26A22F48012B6
:10309400A2625A6812F4806F05D0A26A22F44052E8
:1030A40042F48052A262A26A12F4805F2BD0E26AD8
:1030B40022F00602E262002284F824206FF0020269
:1030C4001A6023689A6802F46022B2F5602F1DD05A
:1030D4009A6842F480129A602AE0A2F580625268EB
:1030E40012F4702FD1D0A26A42F48012A262134A61
:1030F400526812F4806FD6D0A26A22F4405242F48D
:103104008052A262CFE70022E262D4E70A4A9342E5
:1031140004D09A6842F4A0029A6009E0A2F58062A1
:10312400526812F4702FD3D1F3E7002384F82430CB
:1031340010BD0220704700BF002801400024014058
:1031440038B503689A6812F0010F01D1002038BD28
:1031540004469A6822F001029A60FFF783FE05464E
:1031640023689B6813F0010F0ED0FFF77BFE431B0F
:10317400022BF5D9A36A43F01003A362E36A43F078
:103184000103E3620120E2E70020E0E7002800F009
:103194008680F8B50446836A002B50D02046FFF79A
:1031A400CFFFA36A13F0100373D1002871D1A26A70
:1031B40022F4885222F0020242F00202A262626801
:1031C400266838498E4240D0E1690A43E16842EA00
:1031D4004102A568B5F5807F02D0012D3CD01D4683
:1031E4006769012F3BD0716821F4694129437160FB
:1031F4002568AE682C4931401143A960A168B1F536
:10320400807F01D0012902D12369013B1B05256878
:10321400E96A21F470010B43EB6223689968234B3C
:103224000B409A422CD0A36A23F0120343F01003FC
:10323400A362E36A43F00103E36201202EE0C36268
:1032440080F82430FFF726FEA8E7E169B1F5402FA6
:10325400BBD14FF40021B8E74FF48075C0E731B912
:10326400A169013945EA413141F40065BBE7A16A2E
:1032740041F02001A162E16A41F00101E162B2E79B
:103284000023E362A36A23F0030343F00103A36270
:1032940004E0A36A43F01003A3620120F8BD0120F7
:1032A400704700BF003C0140FDF7E1FFFE0E1FFF29
:1032B4000F4B1A6842F001021A6059680D4A0A401D
:1032C4005A601A6822F0847222F480321A601A68F2
:1032D40022F480221A605A6822F4FE025A604FF4E3
:1032E4001F029A60044B4FF000629A60704700BF5F
:1032F400001002400000FFF800ED00E02DE9F04F5F
:1033040089B08D4B9A6942F004029A619A6902F07D
:1033140004020192019A9A6942F008029A619A6938
:1033240002F008020292029A9A6942F010029A612B
:103334009B6903F010030393039B4FF00009CDF83E
:103344001490CDF8189002270797202304937B4DFF
:1033540004A92846FFF79AFB4022049204A92846B0
:10336400FFF794FB4FF0800ACDF810A004A928467B
:10337400FFF78CFB4FF4806BCDF810B0704C04A9B0
:103384002046FFF783FB4FF4006ACDF810A004A990
:103394002046FFF77BFB4FF48056049604A9204691
:1033A400FFF774FB4FF00108CDF81880049606F17E
:1033B400804606F5784604A93046FFF767FBCDF84A
:1033C40010B004A92846FFF761FBCDF810A004A9AA
:1033D4002846FFF75BFBCDF81890049704A9304604
:1033E400FFF754FBCDF814804FF00409CDF810908A
:1033F40004A92846FFF74AFB102104910DEB0100B4
:1034040001463046FFF742FB2023049304A80146FB
:103414003046FFF73BFB03230593CDF8108004A847
:1034240001462046FFF732FBCDF8108004A8014680
:103434003046FFF72BFB4FF0080ACDF810A004A884
:1034440001462046FFF722FB049704A801462046C4
:10345400FFF71CFB1021049169442046FFF716FB7B
:103464002023049304A92046FFF710FBCDF8109005
:1034740004A92046FFF70AFBCDF810A004A93046A2
:10348400FFF704FBCDF8109004A93046FFF7FEFACD
:1034940005974022049204A92046FFF7F7FA4FF05B
:1034A400800ACDF810A004A92046FFF7EFFA4FF4E4
:1034B4008079CDF8109004A92046FFF7E7FACDF8FB
:1034C40010A004A93046FFF7E1FACDF8108004A952
:1034D4002846FFF7DBFA049704A92846FFF7D6FA33
:1034E400CDF8109004A93046FFF7D0FA4FF40073DA
:1034F400049304A93046FFF7C9FACDF810B004A923
:103504003046FFF7C3FA4FF40053049304A9284646
:10351400FFF7BCFA4FF48043049304A92846FFF74D
:10352400B5FA4FF40043049304A92846FFF7AEFA12
:1035340009B0BDE8F08F00BF00100240000C01404C
:10354400001001402DE9F04F99B07B4B9A6942F489
:1035540000629A619A6902F400620192019A9A697E
:1035640042F400529A619B6903F400530293029B54
:10357400724EDFF8CC91C6F80090002474604FF0CE
:10358400200AC6F808A04FF4FA6BC6F80CB03461F0
:103594007461B4613046FEF7EBFF10231693179461
:1035A40016A93046FFF716F960230F93109411946F
:1035B40008271297139414944FF40072159222461C
:1035C4000FA93046FFF726F804220FA93046FFF76B
:1035D40021F83A460FA93046FFF71CF84FF4006172
:1035E40008914FF4806009900A9430250B950C944F
:1035F4000D940E940DEB0A0C61463046FFF7C1F8AA
:10360400504DDFF84481C5F800806C60C5F808A00F
:10361400C5F80CB02C616C61AC612846FEF7A8FFBC
:10362400CDF858A0802317930DF1580C6146284615
:10363400FFF7D0F804940523039303A92846FEF763
:103644002BFF5023C8F8243060230F931094119457
:103654001297139414944FF40072159222460DF1AC
:103664003C0C61462846FEF7D5FF04220DF13C0CC4
:1036740061462846FEF7CEFF3A460DF13C0C614602
:103684002846FEF7C7FF4FF4006108914FF48060AD
:1036940009900A9430230B930C940D940E940DEB23
:1036A4000A012846FFF76DF8D8F8443023F40043A4
:1036B400C8F84430D9F8443023F40043C9F84430FE
:1036C40021462846FFF722F804212846FFF71EF872
:1036D40039462846FFF71AF821462846FFF73FF8EF
:1036E40004212846FFF73BF839462846FFF737F808
:1036F40021463046FFF70AF804213046FFF706F862
:1037040039463046FFF702F821463046FFF727F8DE
:1037140004213046FFF723F839463046FFF71FF8F7
:103724002B6801221A633268136843F001031360A3
:1037340019B0BDE8F08F00BF001002400004002063
:10374400002C0140C0030020003401402DE9F04367
:1037540087B0434EB36943F40073B361B36903F4B0
:1037640000730093009B3F4C3F4B23604FF48073E6
:10377400A3600025E56065614FF44023E361656063
:103784004FF00508C4F810802046FFF7FFFC374AC5
:10379400536843F4802353604FF4C023059305A971
:1037A4002046FFF741F804950B2702974FF00109D3
:1037B400CDF80C9002A92046FFF76EFBCDF81090CF
:1037C40002950223039302A92046FFF765FB0E230B
:1037D40002930323039302A92046FFF75DFB0C2306
:1037E40002930423039302A92046FFF755FB072302
:1037F400049310230293CDF80C8002A92046FFF70E
:103804004BFB2268936843F4000343F48073936092
:10381400936843EA09039360736943EA0903736194
:10382400736903EA09030193019B114B9D60C3F87B
:103834000C80104A1A61104A5A6140F6A2229A601A
:103844009A6842EA09029A602A4629463846FFF7EE
:1038540061F83846FFF76EF807B0BDE8F08300BFA3
:1038640000100240900300200024014000000140A9
:10387400000002404C2401404C030020F0B585B008
:10388400274B9A6942F480629A619B6903F48063CE
:103894000093009B234C244B23604FF48073A3605C
:1038A4000025E56065614FF46023E36165600526EA
:1038B40026612046FFF76AFC03950A23019301253C
:1038C400029501A92046FFF7E7FA03950D2301931A
:1038D4000227029701A92046FFF7DEFA0F2301937E
:1038E4000325029501A92046FFF7D6FA0197042380
:1038F40002930DEB03012046FFF7CEFA01950296E1
:1039040001A92046FFF7C8FA23689A6842F4807236
:103914009A609A6842F001029A6005B0F0BD00BF57
:1039240000100240600300200028014070B5204CC4
:10393400002384F8FB3084F8FA30022284F8F9205A
:10394400012684F8FD6042F6E062A4F8CE204FF42C
:103954007A51A4F8DA1084F8FE304FF47A63A4F8AC
:10396400D0304FF4C873A4F8CC30A4F8E010A4F815
:10397400E220104D4FF4807221462846FCF7ECFCFF
:1039840085F8FA600C4804600C4BC3600C4B436030
:103994000C4B83600C4C25600C4BE3600C4B636058
:1039A4000C4BA36003F0CEF8204603F0CBF870BDB7
:1039B400C000002020050020FC0600204006002056
:1039C4003006002020060020EC06002074040020AD
:1039D40064040020540400200C4B93F8FE301BB9FF
:1039E4000B4B93F8FE3043B10A4B4FF47A721A80B2
:1039F400094B4FF618421A807047064B4FF47A72FF
:103A04001A80054B4FF618421A807047C0000020F8
:103A140020050020480400204604002010B5084B6F
:103A240000221A70082405E0064B1C706420FFF77E
:103A34001FFA013C002CF7DA024B00221A7010BD69
:103A44004407002046070020034B1870034B1970ED
:103A5400034B1A70704700BF44070020460700203C
:103A64004507002038B50025044B1D70044C207018
:103A74004FF4FA70FFF7FCF9257038BD44070020B5
:103A84004607002038B50025044B1D70044C2070F7
:103A94006420FFF7EDF9257038BD00BF440700200E
:103AA400460700200B4A002313800B4BB3F9081080
:103AB4008BB21180094909895B1A1BB2138003EB8D
:103AC400D3735B101380002BB8BF5B42044A13808E
:103AD400704700BF4E04002020060020540400203C
:103AE4004C04002010B51A4B83FB00C44FEAE07E5F
:103AF400CEEBE41E83FB02434FEAE27CCCEBE31300
:103B04009E451BD0124C84FB01C44FEAE17CCCEBF4
:103B1400E41C634515D0904215DC8A4215DBE6456A
:103B24000AD0022464280ADD40F69A739A4206DC1D
:103B34000220FFF797FF02E00124F3E70024204668
:103B440010BD0024FBE70024F9E70024F7E700BFD9
:103B54001F85EB512DE9F04788B0FDF7F5FF01F023
:103B6400CBFA0DF11E017C4B188801F0A1FABDF8C7
:103B74001E2041F211039A4201D00025CBE0764E7B
:103B840007A9708801F094FABDF91C30734DA5F8AB
:103B9400CE30734CA4F8CE3007A9B08801F088FA6F
:103BA400BDF91C30A5F8DA30A4F8DA300026002E6E
:103BB40040F0B380F400E31CDFF89C8107A938F8D7
:103BC400130001F075FA9DF81C30A21B654D05EB3E
:103BD40042052B71231D07A938F8130001F068FA78
:103BE400BDF91C30EB80631D07A938F8130001F000
:103BF4005FFABDF91C302B81A31D07A938F8130007
:103C040001F056FABDF91C306B81E31D07A938F8A1
:103C1400130001F04DFA9DF81C30DFF84C91A71BFE
:103C240009EB47073B7106F1010A4FEACA0307A9EA
:103C340038F8130001F03CFABDF91C30FB8004F1A4
:103C4400090307A938F8130001F032FABDF91C3052
:103C54003B8104F10A0307A938F8130001F028FA9C
:103C6400BDF91C307B81B5F90A203979B7F9060012
:103C7400B7F9084004930394029001910092B5F9B6
:103C84000830B5F9062029793848FCF7EBFB5FFAD0
:103C94008AF68CE72C46C5EBC502324B03EB420394
:103CA400597903293ED0C5EBC5022E4B03EB4203E1
:103CB4001971C4EBC4022C4B03EB42035979032959
:103CC4003DD0C4EBC402284B03EB42031971C4EB8F
:103CD400C403244901EB4301B1F90A00224A02EB6F
:103CE40043031E79B3F90670B3F90830C4EBC40476
:103CF40002EB4402B2F90A2004920393029701965C
:103D04000090B1F90830B1F9062009791748FCF799
:103D1400A9FB0135EDB2002DBCD0FDF729FF08B099
:103D2400BDE8F0870F4E06EB4206B6F90A20B6F955
:103D34000810B6F90600FFF7D5FE3071B9E70A4E50
:103D440006EB4206B6F90A20B6F90810B6F90600E1
:103D5400FFF7C8FE3071BAE7640000202005002098
:103D6400C00000209C0000208C000020806C000813
:103D74000379012B04D0022B17D000234380704712
:103D8400B0F90030B0F906C0A3EB0C0302FB03F357
:103D9400B0F90A10A1EB0C0193FBF1F39A4202DB98
:103DA40023EAE3731AB24280704730B5B0F90030A9
:103DB400B0F908C0B0F90CE0ACEB0E04A34206DD88
:103DC4000CEB0E05AB4202DA0023438012E063459C
:103DD40011DDF444A3EB0C0302FB03F3B0F90A1066
:103DE400A1EB0C0193FBF1F39A4202DB23EAE373A8
:103DF4001AB2428030BD1B1B01FB03F3B0F906204D
:103E0400121B93FBF2F3002B02DD00214180F1E74A
:103E14009942B8BF194609B2F8E70000094B1B786C
:103E240073B9094AB2F80EC0C3EBC3004100074896
:103E340020F801C0518AC3EBC3035A00044B9952C2
:103E4400704700BF510400204C0300209C00002058
:103E54008C00002008B5354B1B78002B3BD134492E
:103E6400C3EBC30042008818895EB0F90620C83A43
:103E7400914224DBC3EBC30250002D4A0244B2F941
:103E84000A20C83291421ADC2A49C3EBC30042001B
:103E94008818895EB0F90620C83A91420FDBC3EB5B
:103EA400C3025000234A0244B2F90A20C8329142A4
:103EB40005DC002220490A7020490A800BE01F49D2
:103EC4000A88501C0880632A05D91B4A01211170F5
:103ED4001A4A64211180184A12782AB9184A1278A9
:103EE40012B9184A1278A2B10021174A1170C3EB13
:103EF400C30250000E4A024451800E4A02445180CB
:103F040013B1124A12784AB113B9104B1B784BB94A
:103F140008BD0F4A11780C4A1170F1E70820FFF729
:103F2400B1FDF5E71220FFF7ADFDF1E751040020E4
:103F34009C0000208C0000204B0400206000002026
:103F44004A040020400400208A000020500400207D
:103F54008B00002070B5FFF761FF194E3078194DC2
:103F6400194CC0EBC000B5F90020B4F90010174B90
:103F740003EB4000FFF7FCFE3078C0EBC000B5F95E
:103F84000020B4F90010124B03EB4000FFF7F0FEE1
:103F9400FFF760FF0F4C4FF480612046FEF792FE5E
:103FA400B0FA80F040090C4B18704FF400612046C1
:103FB400FEF788FEB0FA80F04009084B187070BD17
:103FC4005104002048040020460400209C000020E6
:103FD4008C000020000C0140420400204104002019
:103FE4002DE9F843374B1B7813B9374B1B78C3B112
:103FF400FDF7AAFD354C41F21101208801F006FAC3
:10400400334DB5F9CE1089B2608801F0FFF9B5F9E6
:10401400DA1089B2A08801F0F9F900251DB1FDF785
:10402400A7FDBDE8F883EC00E01C621B5300294F98
:104034001F44264E397936F8100001F0E7F9231DA4
:10404400B7F9061089B236F8130001F0DFF9631DE1
:10405400B7F9081089B236F8130001F0D7F9A31D97
:10406400B7F90A1089B236F8130001F0CFF9E21D4E
:10407400DFF86480631B5F004744397936F8120027
:1040840001F0C4F905F101094FEAC903B7F90610B3
:1040940089B236F8130001F0B9F904F10903B7F94C
:1040A400081089B236F8130001F0B0F904F10A02DD
:1040B400B7F90A1089B236F8120001F0A7F95FFACD
:1040C40089F5ABE743040020440400206400002089
:1040D400C00000209C0000208C00002010B50024AB
:1040E4000B4B1C700B4B1C700B4B1C7005E00B4BEB
:1040F4001C706420FEF7BCFE0134072CF7DDFFF7CB
:104104006FFF002220210648FEF7E3FDFEE700BF13
:104114003D070020440700204507002046070020F3
:104124000008014010B414682313C3EB00134FEAD2
:10413400E37CA1FB033001FB0C011B0943EA01737F
:104144000911B3F1004F71F1000008DA1846B3F118
:10415400004F71F1FF3104DA4FF0004001E06FF0DD
:1041640000400444146010BC704700002DE9F04F77
:1041740085B0FFF797FC564BB3F90030052B02DDF1
:1041840005B0BDE8F08FFFF749FE524B1B78C3EB37
:10419400C301514A32F91120120403924F4A32F9F1
:1041A400112012040292002B00F08E800023019350
:1041B4000025DFF82C812E4647F6FF79C2462F46AC
:1041C400CB462CE0FFF72AFE424D2B78C3EBC3030A
:1041D40003AA41F69911404830F91300FFF7A2FFF2
:1041E4002B78C3EBC30302AA41F699113B4830F97B
:1041F4001300FFF797FFBDF90E70BDF90A60BB45C8
:10420400A8BFBB46BA45B8BFBA46B145A8BFB14678
:10421400B045B8BFB0460520FEF72AFE2546022168
:104224003048FEF74FFD20B96C1CA4B2B5F57A6F87
:10423400C8D3524639465846FFF754FCC4B2254BFE
:104244001B78C3EBC303244A02EB43035B79A34209
:1042540002D0032B00D00024424631464846FFF7E3
:1042640041FCC0B21B4B1B78C3EBC3011B4A02EBDE
:1042740041025279824202D0032A00D0002014B9AC
:1042840000283FF47DAFC3EBC301134A02EB4102A4
:104294001471019CA344A2F806B01781AAEB040A86
:1042A400A2F80AA00D49C3EBC30201EB420210714C
:1042B400A144A2F806901681A8EB0408A2F80A808B
:1042C400094B01221A705BE76423019370E700BF76
:1042D4004C040020510400209C0000208C0000208D
:1042E4000080FFFF000801404304002030B583B084
:1042F400FFF7D8FB514BB3F90030052B00F3968040
:104304004F4B1B78C3EBC3014E4A32F91120120400
:1043140001924D4A32F911301B04009300244B4B97
:104324001C701CE0FFF77AFD454C2378C3EBC303F4
:1043340001AA41F69911434830F91300FFF7F2FE40
:104344002378C3EBC3036A4641F699113E4830F91A
:104354001300FFF7E7FE0520FEF78AFD2C46022135
:104364003B48FEF7AFFC20B9631C9DB2B4F5FA6F6D
:10437400D8D3334B1B78C3EBC302324901EB420160
:10438400B1F90600019AA2EB0042B1F90A10091A28
:1043940092FBF1F2B2F5803F4ADA41F699118A4272
:1043A400B8BF0A4690B2C3EBC302274901EB4201EE
:1043B400B1F90640009AA2EB0442B1F90A10091BB4
:1043C40092FBF1F2B2F5803F35DA40F6CC418A42F5
:1043D400B8BF0A4691B2C3EBC3041A4A02EB4402C3
:1043E40012796AB140F2EE2200FB02F2121319486C
:1043F400A0F8CE201848A0F8CE20144A012010704E
:10440400C3EBC303104A02EB43031B7973B14FF4AC
:104414007A7303FB01F213130E4AA2F8DA300E4A40
:10442400A2F8DA30094A13780233137003B030BDAE
:104434004FF6FF70B7E74FF6FF71CCE74C0400204E
:10444400510400209C0000208C0000204404002023
:104454000008014020050020C000002038B50221DA
:104464002448FEF72FFC90B938BD25460221214887
:10447400FEF728FC68B10A20FEF7FAFC6C1CA4B213
:10448400B5F5FA7FF1D10520FFF7FCFAEDE7002539
:10449400ECE7082D05D9184B00221A70B5F5FA7F00
:1044A40003D2082DE0D9FFF719FE4FF47A70FEF716
:1044B400DFFC02210F48FEF705FC58B91020FFF776
:1044C400D1FAFFF753FE0520FFF7DCFACCE70A2008
:1044D400FEF7CEFC02210748FEF7F4FB0028F6D1D4
:1044E4000820FFF7BFFAFFF701FF0520FFF7CAFA1C
:1044F400BAE700BF000801403D07002003019BB25A
:1045040010881B1A1BB28B4204DC494209B28B424D
:1045140000DB194608441080704700000A498842AD
:10452400B8BF0846001110800849B1F9001088424C
:1045340005DC0749B1F900108142B8BF014611807A
:1045440018801980704700BF0080FFFF48040020D6
:104554004604002030B597B002250C950123109332
:10456400102311931395002414944FF4601315939E
:104574000CA8FDF7A1FB0F230793089509944FF4AA
:1045840080630A930B94294607A8FDF7BDFD0195A6
:104594004FF48043039301A8FEF7A6FBFDF772FED8
:1045A400084BA3FB00308009FEF7D0F90420FEF786
:1045B400E1F9224621464FF0FF30FEF7ABF917B080
:1045C40030BD00BFD34D621070B582B0FEF730FC31
:1045D400364CA36943F00103A361A36903F001030B
:1045E4000093009B0320FEF783F9002211466FF02D
:1045F4000B00FEF78FF9002211466FF00A00FEF758
:1046040089F9002211466FF00900FEF783F90022B0
:1046140011466FF00400FEF77DF9002211466FF099
:104624000300FEF777F9002211466FF00100FEF750
:1046340071F9002211464FF0FF30FEF76BF9FFF7D6
:1046440089FF636923F001036361FEF757FEFEF7F8
:1046540079FFFFF77BF8FFF711F9FFF767F90122FC
:1046640020211348FEF735FBFFF7B6F9FFF772FA7E
:104674001048FEF7F1FC1048FEF7EEFCFFF7CEF908
:10468400012204210D48FEF724FB0D4A138A1B0462
:104694000193138A02E00A20FEF7EAFB0221044890
:1046A400FEF710FB0028F6D1FFE000BF0010024027
:1046B400000801409003002060030020000C01402A
:1046C4004C030020A14CA24D2B78C3EBC303A14A99
:1046D40002EB430322464FF4F071B3F90200FFF7F3
:1046E4000DFF9D4E2B78C3EBC3039C4A02EB43039F
:1046F40032464FF4F071B3F90200FFF7FFFE984D14
:10470400B4F900002A4641F699110011FFF70AFD99
:10471400944CB6F90000224641F699110011FFF7B6
:1047240001FDB5F90250904B1D80B4F902408F4B46
:104734001C8002218E48FEF7C5FA002800F0FD8097
:104744000122322C40F3FC80C4F57A7405FB04F496
:10475400884B83FB0413E417C4EBA314824B1C8023
:10476400814B188802FB00F000B2188000217F4BB7
:104774001980814C814D000123462A4600B2FFF77F
:10478400CDFEB5F900305B427D4A1360B4F90020D8
:104794007C4B1A607C4B188A01AA40F28F2180B2AC
:1047A400FFF7C0FCBDF90630A3F2776303EB831275
:1047B40003EB4203754A82FB0312DB17A3EB62038C
:1047C40003F5B373724A1380724CB4F9003040F6A7
:1047D400827202FB03F302F1AF4202F5B30202F26A
:1047E4004F1282FB0312DB17C3EB62236A4A138066
:1047F4006A4B9B89C3EBC3335B009AB268490B8055
:10480400684B9B89C3EBC3335B0099B26648038052
:104814005318664A1380FFF721FEB4F9003040F2C2
:10482400F142934205DC624AB2F90020132A40F3B4
:104834008A80604A927922B95F4A9279002A00F00C
:10484400CB805E4B00221A70012218211046FFF71C
:10485400FBF85B4A136801331360474BB3F900302C
:10486400002BB8BF5B429BB2322B08D8434BB3F941
:104874000030002BB8BF5B429BB2322B02D9504BA5
:1048840000221A604E4B1A684E4B9A4201D9FFF728
:1048940025FC2F4B1A784C4B1A704C4B1A684C4B16
:1048A4001A604C4A136801331360484B1B68484A2A
:1048B40012689B1A502BF8D9FFF74CFBFFF7F2F85C
:1048C4003E4B1B78002B7FF4FDAE3A4B9B79002BBB
:1048D4007FF4F8AE384B9B79002B7FF4F3AE1C4B7E
:1048E4001A78C2EBC2011B4B03EB4103B3F902304C
:1048F400002BB8BF5B429BB2312B3FF6E3AE174BA4
:1049040003EB4103B3F90230002BB8BF5B429BB207
:10491400312B3FF6D7AE0620FFF7B4F80420FFF79B
:10492400B1F86420FEF7A4FA00230D4A13600D4A7F
:104934001360224B01221A70C4E64FF0FF3200E7E5
:10494400094B1D800CE7FFF7C9FB82E71C07002019
:10495400510400209C0000201E0700208C00002031
:104964001407002018070020220700202007002039
:1049740000080140D34D62102607002024070020C0
:10498400480700204C0700204C0300206B4CA40770
:104994002E070020B0000020300700203006002041
:1049A4002C070020640400202A0700202807002088
:1049B4004C04002020060020540400203D07002061
:1049C4000C0700208038010050040020400700201C
:1049D4001007002034070020234A12781ABB234A08
:1049E400127832BB224A12784ABB40F222529342D6
:1049F4002BDD204BB3F9003013F1320F05DB1E4BD6
:104A0400B3F9003013F1320F04DA1C4BB3F9003060
:104A1400002B20DB002211461046FFF715F8184B37
:104A240000221A7015E7012218210220FFF70CF862
:104A34000FE7012218210320FFF706F809E70122F6
:104A440018210420FFF700F803E706220A210020BA
:104A5400FEF7FAFFFDE6012205210020FEF7F4FF30
:104A6400074B01221A70F4E64B0400204A0400208C
:104A74004004002024070020260700204E040020C4
:104A840038070020994B02225A60994B1B88B3F5D2
:104A9400FA6FC0F0A08010B5964B1A68964BA3FB32
:104AA40002139B094FF47A7101FB1323002B00F0CE
:104AB400D380924B998889B2914A1288521A9149AB
:104AC4000A80D98889B2904A1288521A8F490A807A
:104AD400598889B28E4A1288521A12B28D490A80B4
:104AE400188980B28C490988091A8C480180588930
:104AF40080B28B490988091A8A480180198889B2C9
:104B0400894B1B885B1A1BB288490B80002AB8BFEB
:104B1400524292B240F252318A4204D8844A127804
:104B2400002A40F0A78083494A6C22F400424A6478
:104B3400002BB8BF5B429BB240F25232934204D87E
:104B44007B4B1B78002B40F09B807B4A536C23F4F7
:104B540000435364674A136801331360774B1A7830
:104B6400002A00F09380634B1B687549A1FB031373
:104B74001B0B744909780131B3FBF1F001FB1033CD
:104B8400002B40F08380704B1B787BB96E4B012166
:104B940019706E490B780133DBB20B706C490978DC
:104BA40002318B4202DD694B01211970514B1B68A4
:104BB400B3FBF2F102FB1133002B6AD1634B1A7879
:104BC400634B1B789A4201D9002B62D110216148B2
:104BD400FEF785F85DE00133454A1380474A918822
:104BE40089B24748B0F900300B4403EBD3735B1030
:104BF4000380D18889B24448B0F900300B4403EBF8
:104C0400D3735B100380118989B24348B0F9003033
:104C14000B4403EBD3735B100380518989B2404882
:104C2400B0F900300B4403EBD3735B10038051885D
:104C340089B23748B0F900300B4403EBD3735B10EF
:104C44000380128892B23849B1F90030134403EB5F
:104C5400D3735B100B807047284B98893E4C2246D7
:104C640040F28F2180B2FFF75DFAB4F902203B4B8A
:104C74001A801EE72F494A6C42F400424A6457E7FF
:104C84002D4A536C43F40043536463E72E4B1B7863
:104C9400FBB9334B93F8F930022B23D0314B00226C
:104CA4001A80314B1B78002B40F00D812E4B0122D2
:104CB4001A701F4B1B78002B5CD02C4B9B79002B5C
:104CC40040F002812A4B9B79002B00F0FF800022E8
:104CD40051E0002210211F48FDF7FBFF1A4B002270
:104CE4001A70D6E71F4B6E221A80DAE700000240E2
:104CF4003A07002040070020D34D62104C030020E7
:104D0400BC0000205A070020BA00002058070020E9
:104D1400B400002056070020B800002054070020EB
:104D2400B600002052070020B200002050070020E7
:104D34003D07002000340140002C014046070020BC
:104D44005917B7D1450700203F0700203E07002030
:104D54004407002000080140AC000020B0000020FF
:104D6400C00000205C070020390700202006002036
:104D7400540400200022D2B26D4B1A706D4B996816
:104D840011F0200F0CBF01240024996811F0400F8A
:104D94000CBF012000209B6813F0800F0CBF012181
:104DA4000021654B1A70654A12785A70644A126879
:104DB4005A801C7158719971624A12881A81624A28
:104DC40012885A81614A12889A81614B186800F0EE
:104DD400E3FD604BB3F90010B3F90220B3F904C04A
:104DE40001F2E7345C4BB3F90030C3F5FA60844256
:104DF4006EDB81B2594C616302F2E73188426FDCA9
:104E0400C3F5FA6292B255498A630CF2E7329042D2
:104E14006EDCC3F5FA639BB2504AD363504B9A6875
:104E240012F4806F0CBF012000209A6812F4006F06
:104E34000CBF012100219B6813F4805F0CBF012289
:104E44000022484B3A4C24781C703C4C24785C700B
:104E5400454C24685C80187159719A71434A1288D0
:104E64001A81434A12885A81424A12889A81424BD3
:104E7400186800F091FD414BB3F90010B3F902201A
:104E8400B3F904C001F2E734334BB3F90030C3F58E
:104E9400FA60844234DB81B2394C616302F2E73157
:104EA400884235DCC3F5FA6292B235498A630CF262
:104EB400E732904234DCC3F5FA639BB2304AD363E1
:104EC400304B00221A7010BD002254E7012252E731
:104ED40001F57A74A34201DCA1B28BE799B289E7A8
:104EE40002F57A718B4201DC8AB28CE79AB28AE7C6
:104EF4000CF57A72934201DC93B28DE79BB28BE797
:104F040001F57A74A34201DCA1B2C5E799B2C3E703
:104F140002F57A718B4201DC8AB2C6E79AB2C4E721
:104F24000CF57A72934201DC93B2C7E79BB2C5E7F2
:104F34003C070020000C0140300600208A000020BD
:104F44004C0700205A07002058070020560700206D
:104F54002C6D0008200600205C070020003401406E
:104F6400001001406404002048070020540700207A
:104F74005207002050070020286D00085404002028
:104F8400002C01403907002000E00430064B984211
:104F940007D203889BB24FF6FF729342F5D00020EC
:104FA40070470120704700BF00080108114B1B889F
:104FB4009BB2114A128892B288B1012813D13AB92E
:104FC4004EF6EE618B4201D040230DE013460BE018
:104FD40063B94EF6EE618A4206D1402304E01BB168
:104FE40032B9402300E0002318467047AB23FBE7A7
:104FF400AB23F9E7000001080000020870B506467B
:105004000D460120FFF7D2FFAB281ED000F58034F7
:105014002034E40201300D4B03EBC02C644513D261
:105024002368B3F1FF3F01D00434F7E72A46002395
:1050340021460120FCF7DAFD38B932460023A11CD1
:105044000120FCF7D3FD00E0802070BDFFFF0008C5
:1050540010B586B0002305930193124803900123F1
:105064000493FFF791FF28B905A901A8FDF7BCFC3B
:10507400044638B9002200230A490120FCF7B6FD92
:10508400044610B1204606B010BD074B03930748F1
:10509400FFF77AFF0028F5D105A901A8FDF7A4FCC4
:1050A4000446EFE700000108008001080000020840
:1050B40038B504460D460020FFF778FFAB2813D01F
:1050C400014601300A4B03EBC0230A4A02EBC1221A
:1050D4009A420AD21A8892B2A24201D0043BF4E75F
:1050E40033F8023C2B80002038BD0120FCE700BFD0
:1050F400FEFF000802000108F0B587B00022059207
:105104008C4B1E88B6B28C490D88ADB201920393C4
:10511400012304934EF6EE639E423FD04FF6FF7395
:105124009E420AD0002E00F0A380FFF791FF0546AF
:1051340000B90025284607B0F0BD55B14EF6EE6320
:105144009D4215D0FFF784FF05460028F2D10025C3
:10515400F0E77848FFF718FF04460028EAD105A9CC
:1051640001A8FDF741FC05460028E3D12546E1E707
:105174007048FFF709FF30B905A901A8FDF734FC11
:1051840005460028D6D1002200236B490120FCF7F4
:105194002DFD05460028CDD10025CBE75DB34FF6A4
:1051A400FF739D424AD0FFF753FF05460028C1D143
:1051B4000025BFE727B20CE00134A4B2122C1ED89C
:1051C4005C4BDB889BB226465C4A32F8140083426F
:1051D400F0D0BE42F0D05A49FFF76AFF0128EBD065
:1051E400574B1988554B33F81600FFF707FF002873
:1051F400E2D005469EE72C464FF0FF37DEE700225B
:1052040000234C490120FCF7F1FC08B1054691E765
:10521400002301934B4B0393012304934648FFF768
:10522400B3FE0446002885D105A901A8FDF7DCFBDF
:10523400054600287FF47EAF25467BE7414B039368
:105244003D48FFF7A1FE38B905A901A8FDF7CCFB3D
:10525400054600287FF46EAF002200233549012063
:10526400FCF7C4FC054600287FF464AF002561E721
:105274003DB14FF6FF739D420AD034464FF0FF37DD
:105284001CE0FFF7E5FE00283FF454AF054651E764
:105294002C4B03932848FFF777FE054608B13546A3
:1052A40048E705A901A8FDF79FFB00283FF442AF9A
:1052B40005463FE727B20CE00134A4B2122C1AD8F9
:1052C4001D4BDB889BB225461C4A32F814008342EE
:1052D400F0D0BD42F0D01A49FFF7EAFE0128EBD026
:1052E400174B1988154B33F81500FFF787FE054651
:1052F4000028E1D01EE7002200230F490120FCF71B
:1053040075FC054600287FF415AF00230193094876
:10531400039001230493FFF737FE054608B1354691
:1053240008E705A901A8FDF75FFB00283FF402AFD9
:105334000546FFE6000001080000020864000020A2
:105344005E070020008001082DE9F04186B0054683
:105354000E4600200590FFF729FE402811D00028B2
:1053640048D1DFF89480254F4EF6EE62002339468B
:105374000120FCF73BFC044638B1204606B0BDE8EA
:10538400F081DFF87C801C4FEEE731462846FFF7BA
:1053940035FE044610B1F0E70134A4B2122C14D83F
:1053A400184B33F81400A842F6D01749FFF780FED3
:1053B4000128F1D0144B1988124B33F81400FFF76D
:1053C4001DFE0028E8D00446D7E700230193CDF85A
:1053D4000C800123049305A901A8FDF705FB0446ED
:1053E4000028CAD10022002339460120FCF7FEFB25
:1053F4000446C2E7AB24C0E700000108000002082D
:1054040000800108640000205E07002038B50446CF
:105414000D46FFF7F3FD802800D038BD294620460D
:10542400FFF792FFF9E77047FEE7FEE7FEE7FEE7C6
:1054340070477047704708B5FDF70CFDFDF7ABFAF0
:1054440008BD884209DD401A80B2B0FBF2F29A42EC
:1054540001D2D0B27047D8B270470020704788425A
:1054640009D9401A80B2B0FBF2F29A4201D2D0B20A
:105474007047D8B270470020704790EA010F04D4F7
:10548400002390FBF1F01844704790FBF1F301FB0B
:105494001303002BF5D04FF0FF33F2E70180704780
:1054A4003AB9B3F90020104400B2884203DA1880F4
:1054B40070470022F7E719807047002303604360B8
:1054C4007047000030B4B0F900401D68A4EB2544D7
:1054D400B4F5004F04DA14F5004F03DA0F4C01E081
:1054E40047F6FF7404FB0154251415801C60B0F9C1
:1054F40002005C68A0EB2440B0F5004F04DA10F51C
:10550400004F03DA054801E047F6FF7000FB014154
:1055140008145080596030BC704700BF0080FFFF02
:105524000180704710B4019C42B92288104480B2B3
:105534001880884204D2208010BC70470022F5E70E
:105544002180F9E713781B1A18BF01230B70107020
:10555400704710B5044600210430FFF7E1FF002135
:10556400A01CFFF7DDFF10BD2DE9F04184B0064615
:10557400884617461D460A9C22460DF10D01FFF789
:10558400E1FFFEB1A37933B1A3792B702B78A3711A
:1055940004B0BDE8F081231D00930DF10E039DF8C6
:1055A4000D2041460120FFF7BDFFBDF80E304345F5
:1055B40003D8A37923B1012300E001232B70E5E78D
:1055C4000023FBE7A379002BDED0A31C00930DF18D
:1055D4000E039DF80D2039460120FFF7A3FFBDF807
:1055E4000E30BB4203D8A37913B1012300E000239A
:1055F4002B70CBE741607047002303604160704724
:1056040030B5BDF90CE0049D059C01FB00F00011D0
:105614000BD400280FDD6FF00041091AD4F800C044
:105624008C4508DD6FF0004007E0C0F10041D4F87C
:1056340000C08C4513DB21680844616801444FEACB
:10564400213C41F30F3098420CDD2B802B88A3EBD7
:105654000C031BB203FB02F22260616030BD4FF009
:105664000040EAE7704502DAA5F800E0EEE728809A
:10567400ECE7012303717047002343710123037195
:105684007047000070B5BDF910E0BDF91460069DC7
:10569400089C00FB02F2002A0ADB002A0CDD6FF0F2
:1056A400004CACEB020CAC4506DA6FF0004C05E0A4
:1056B400C2F1004CAC4514DC02EB050C227902B1BA
:1056C4002360637983B1002325681D4400FB01F145
:1056D400CB12B1F1806F09DA13F5004F08DA254BCC
:1056E40006E04FF0004CE9E76346EDE747F6FF7349
:1056F4002A1403EB42025310B2F5803F04DA13F587
:10570400004F03DA1B4B01E047F6FF731BB27345EE
:1057140018DD079AA2F800E0BCF1000F1ADBBCF117
:10572400000FD4BF00220122002B16DB002BD4BFB4
:1057340000210121914213D00023637100232371BE
:10574400256070BDB34202DA079A1680E4E7079A2F
:105754001380E1E74FF0FF32E6E74FF0FF31E9E76E
:10576400734503DCB34203DB0023E6E70123E4E7EC
:105774000123E2E70080FFFF012303717047002348
:10578400437101230371704770B5BDF910E0BDF991
:105794001460069D089C00FB02F2002A0ADB002A22
:1057A4000CDD6FF0004CACEB020CAC4506DA6FF08C
:1057B400004C05E0C2F1004CAC4515DC02EB050CD5
:1057C40022790AB11B042360637983B1002325681D
:1057D4001D4400FB01F1CB12B1F1806F09DA13F51E
:1057E400004F08DA254B06E04FF0004CE8E763462B
:1057F400EDE747F6FF732A1403EB42025310B2F5A8
:10580400803F04DA13F5004F03DA1C4B01E047F63E
:10581400FF731BB2734518DD079AA2F800E0BCF1D0
:10582400000F1ADBBCF1000FD4BF00220122002BB1
:1058340016DB002BD4BF00210121914213D0002399
:10584400637100232371256070BDB34202DA079AA5
:105854001680E4E7079A1380E1E74FF0FF32E6E7AA
:105864004FF0FF31E9E7734503DCB34203DB002368
:10587400E6E70123E4E70123E2E700BF0080FFFF3E
:105884000123837070470023C37001238370704722
:1058940070B5BDF910E0BDF91450069E089C00FBDC
:1058A40002F2002A0ADB002A0CDD6FF0004CACEB9C
:1058B400020CB44506DA6FF0004C05E0C2F1004C6E
:1058C400B4450DDC02EB060CA27802B12380E37828
:1058D40063B9BCF1000F06DB002363441B1406E02C
:1058E4004FF0004CF0E74FF6FF73F6E700232288F1
:1058F4001A4412B200FB01F1CB12B1F1806F04DA49
:1059040013F5004F03DA234B01E047F6FF7303EB73
:1059140042014B10B1F5803F04DA13F5004F03DA6E
:105924001C4B01E047F6FF731BB273451ADD079960
:10593400A1F800E0BCF1000F1CDBBCF1000FD4BFE8
:105944004FF0000C4FF0010C002B16DB002BD4BFE2
:1059540000210121614513D00023E3700023A370CB
:10596400228070BDAB4202DA07990D80E2E7079905
:105974000B80DFE74FF0FF3CE6E74FF0FF31E9E74C
:10598400734503DCAB4203DB0023E6E70123E4E7D2
:105994000123E2E70080FFFF2DE9F04F93B0056893
:1059A400C4684668876831798A00D2B2737958002E
:1059B400C0B20244D2B2B07902445FFA82FECDF89A
:1059C4001CE0003B18BF012394F89AC094F89B2074
:1059D400002918BF83F00103002818BF83F00103D6
:1059E400BCF1000F18BF83F00103002A18BF83F035
:1059F400010394F89C10003918BF012181EA0302C5
:105A0400994256D094F98E00B94B734493F9881790
:105A1400CBB294F88FC0A3EB0C035BB2012B06D07E
:105A240013F1050F03D0FF2384F88E3002E0012325
:105A340084F88E3084F88F10B4F98010A4F85610CE
:105A44001FFA81FEB4F882C0AEEB0C031BB2002B2C
:105A540043DBB5F904C09C4544DC012384F8A93038
:105A640094F8A98084F8A28094F98E30834214BFFC
:105A74004FF0010C4FF0000C04D094F8A790B9F14A
:105A8400000F57D1834235D0B4F98A009BB200FB92
:105A940003F3A4F87A30A4F88210B4F98630A4F899
:105AA4008430B4F98830A4F88630A4F8881084F8D7
:105AB400A7C004F14003B5F90A100120FFF7F0FC78
:105AC4000B90B5F90A3083423ADBB4F97A300A9381
